:020000040800F2
:10000000C804002001010008E90D00085D0C00088B
:10001000D10C0008710500089F1C000800000000BA
:10002000000000000000000000000000291500088A
:1000300071070008000000009D1200084517000825
:100040001B0100081B0100081B0100081B01000820
:100050001B0100081B0100081B0100081B01000810
:100060001B010008150900081B0100081B010008FE
:100070001B0100081B0100081B0100081B010008F0
:100080001B0100081B0100081B0100081B010008E0
:100090001B0100081B0100081B0100081B010008D0
:1000A0001B0100081B0100081B0100081B010008C0
:1000B000A91700081B0100081B0100081B0100080C
:1000C0001B0100081B0100081B0100081B010008A0
:1000D0001B010008251A00081B0100081B0100086D
:1000E0001B0100081B0100081B010008DFF80CD0F1
:1000F00000F0C6F800480047F11C0008C8040020C2
:100100000648804706480047FEE7FEE7FEE7FEE7B1
:10011000FEE7FEE7FEE7FEE7FEE7FEE74917000819
:10012000ED00000838B5D0E90221491E01EB41017C
:1001300002EBC1014268C1EB011102EB81010268CF
:10014000C1EB011102EB8102D0E9043101EB410165
:1001500003EB81013023A1F5527191FBF3F4174DAC
:100160006C4302EBC41291FBF3F403FB14110092F5
:100170001A2902DB124B1A4400920C2291FBF2F373
:10018000104C6343009C04EBC313009391FBF2F308
:1001900002FB13110C4A08E0491E40F2A324535CF1
:1001A0006343009C04EBC31300930029F4DC014675
:1001B000684600F01FF8009838BD00003F0C0F00A3
:1001C0008051010067C203002424000810B50022FA
:1001D00000E0521C835C8C5CA34201D1002BF8D15F
:1001E000D8B2E1B2401A10BD014900F003B80000D6
:1001F0009800002010B500683C22B0FBF2F302FB2F
:100200001303B0FBF2F00B60B0FBF2F302FB13033D
:10021000B0FBF2F018224B60B0FBF2F302FB1303C9
:10022000B0FBF2F0021D8B600723B2FBF3F403FB7B
:100230001422800040F2B55300F66C308A61B0FBA6
:10024000F3F2B0FBF3F403FB1400443280084A617C
:10025000C8613B2802D3920700D0401C0022074C03
:1002600013460A61E25C824203D8801A5B1C0B6170
:10027000F8E7401CC860084610BD000030240008A4
:10028000064C074D06E0E06840F0010394E80700E3
:1002900098471034AC42F6D3FFF72CFF3C240008FB
:1002A0005C24000821B1826842F00102826003E010
:1002B000826822F001028260704721B1826842F4B4
:1002C0008072826003E0826822F4807282607047EC
:1002D000014600208A6802F004020AB1012000E011
:1002E00000207047014600208A6802F008020AB127
:1002F000012000E00020704730B5024600200023B6
:1003000050680F4C20400D790C6844EA05242043C6
:10031000506090680B4C2040D1E902542C434D7939
:1003200044EA450420439060D06A20F470000C7CBD
:10033000641EE4B2234340EA0350D06230BD0000A3
:10034000FFFEF0FFFDF7F1FFF0B504460D4600207B
:100350000021092D11DDE068A5F10A0606EB46072C
:10036000072606FA07F18843A5F10A0606EB4606BA
:1003700003FA06F10843E0600CE0206905EB45074D
:10038000072606FA07F1884305EB450603FA06F14E
:1003900008432061072A0FDA606B561E06EB8607BA
:1003A0001F2606FA07F18843561E06EB860605FA55
:1003B00006F10843606322E00D2A0FDA206BD61F96
:1003C00006EB86071F2606FA07F18843D61F06EBC1
:1003D000860605FA06F10843206310E0E06AA2F100
:1003E0000D0606EB86071F2606FA07F18843A2F1E1
:1003F0000D0606EB860605FA06F10843E062F0BD3D
:10040000816841F008018160704721B1826842F43F
:10041000A002826003E0826822F4A002826070473A
:10042000816841F0040181607047000000B591B01F
:100430000121480200F060FF0121042000F05CFF70
:100440000121084600F038FF4FF4004000F028FF7B
:1004500000208DF84300A020ADF8400003208DF867
:10046000420010A9304800F01DFB05230122194667
:100470002E48FFF769FF0523022207212B48FFF7CB
:1004800063FF00200B900E904FF460200D90012030
:100490008DF831008DF8300002208DF83C000BA95A
:1004A0002248FFF729FF21484C3000908015069024
:1004B000002004901E4801904FF480600790802037
:1004C0000590002002900220039020200890002038
:1004D0000A904FF4805009906946164800F02AF9B6
:1004E0000121144800F01AF901211048FFF7E5FE38
:1004F00001210E48FFF7D6FE0C48FFF781FF00BF31
:100500000A48FFF7EFFE0128FAD00848FFF788FFF6
:1005100000BF0648FFF7DCFE0128FAD0012103489E
:10052000FFF773FF11B000BD000801400024014037
:10053000160000200800024008B501460020009087
:10054000034800900098084400900098008808BD77
:10055000006C004008B500220092044A0092009A04
:1005600002440092009A116008BD0000006C004037
:1005700000BFFEE700B585B00121082000F0BCFEF9
:1005800010208DF813000002ADF8100003208DF844
:10059000120004A9214800F085FA4FF480511F4849
:1005A00000F016FB0121084600F096FE4FF0804057
:1005B00001F036F90020ADF80A00ADF8060042F26D
:1005C0000F70ADF8080041F61F40ADF804000020A0
:1005D0008DF80C0001A94FF0804001F07FF9012156
:1005E000880701F0F1F801221146900701F00FF998
:1005F0001C208DF8000001208DF8030002208DF8EA
:10060000010001208DF80200684600F0EFFB012197
:10061000880701F0DFF805B000BD0000000C0140C4
:1006200010B50446222C19DD384909783C3148B20E
:1006300000F078FB36A20121032000F081FD334851
:10064000007800F13C0202230821032000F056FD4F
:1006500031A20A21032000F073FD56E0202C1BDD9F
:10066000222C19DA29490978323148B200F05AFBB4
:1006700027A20121032000F063FD2448007800F147
:10068000320202230821032000F038FD22A20A21B1
:10069000032000F055FD38E01C2C1BDD202C19DA5E
:1006A0001A4909781E3148B200F03CFB18A201211A
:1006B000032000F045FD1548007800F11E020223DA
:1006C0000821032000F01AFD13A20A21032000F0E4
:1006D00037FD1AE01C2C18DA0C490978143148B29D
:1006E00000F020FB0AA20121032000F029FD0748A9
:1006F000007800F1140202230821032000F0FEFC20
:1007000005A20A21032000F01BFD10BD30000020CF
:1007100053706565643A00002500000021B102684D
:1007200042F00102026004E002684FF6FE731A40D4
:100730000260704710B50022026847F6F0739A43D2
:100740000C6A8B6823430C6923434C6923438C69EF
:100750002343CC6923434C6A23438C6A23431A43C3
:100760000260CB6843600B6883604B68C36010BD58
:10077000704700B5034603E04FF47A7000F005F8C7
:10078000181EA3F10103F7D100BD00EBC001C900A1
:100790004FF0E0225161002191610521116100BFFC
:1007A0004FF0E021096901F480310029F8D00421DB
:1007B0004FF0E0221161704710B50DA201210846EB
:1007C00000F0BEFC0C480088642100FB01F4E01737
:1007D00004EB10500013C0F1640203230821012030
:1007E00000F08CFC05A20C21012000F0A9FC10BD3A
:1007F0004C696768743A000016000020250000006C
:1008000010B52748408800EB400101EBC00040F2E2
:100810003B1190FBF1F0C0F15F00C4B221A20121B5
:10082000022000F08DFC022322460721184600F02A
:1008300065FC1EA20A21022000F082FC222C2ADD87
:100840001B480078012826D11AA000F0F9FE4FF4C9
:1008500080511B4800F0BAF96420FFF78AFF4FF47B
:100860008051174800F0B4F96420FFF782FF4FF47D
:100870008051134800F0AAF96420FFF77AFF4FF483
:1008800080510F4800F0A4F94FF4FA70FFF771FFA0
:100890000020074908702046FFF7C2FE10BD000087
:1008A0001600002054656D703A00000043000000FF
:1008B0001E0000205761726E696E67210D0A0000EC
:1008C000000C014010B501F039FA0DA201210420FD
:1008D00000F036FC0E48C28802230621042000F0F6
:1008E0000DFC0B48028902230921042000F006FCBC
:1008F0000748428902230C21042000F0FFFB10BDB1
:1009000054696D653A20202D20202D202000000004
:100910002000002010B5082000F02CF8012819D183
:10092000142001F0BEF900BF08210C4800F045F981
:100930000028F9D0142001F0B4F90948007818B95A
:1009400001200749087005E00020054908700120D2
:1009500004490870082000F007F810BD00080140A5
:1009600014000020150000200149086070470000B5
:1009700014040140014600200022074B1B6803EAD3
:100980000102054B14331B680B4013B10AB101205F
:1009900000E00020704700000004014000212349CE
:1009A0008279002A3AD00A46126803689A430B46B5
:1009B0001A600A1D126803689A430B1D1A600279B7
:1009C00011440A6803681A430A60184A0832126818
:1009D00003689A43154B08331A601A1D126803689E
:1009E0009A43124B0C331A604279102A0ED11A1F07
:1009F000126803681A430D4B08331A601A1D1268F7
:100A000003681A43094B0C331A600DE00749427919
:100A100011440A6803681A430A6005E00279114428
:100A20000A6803689A430A607047000000040140A6
:100A300008B50121042000F05FFC10208DF80300B0
:100A40000120ADF8000003208DF80200694604483B
:100A500000F028F80121024800F0B8F808BD0000B5
:100A60000008014030B500228B071C0F0F2303FA4A
:100A700004F20B4B8C1053F824309343084C8D1028
:100A800044F8253023468C1053F824308C07240F6B
:100A900000FA04F42343024C8D1044F8253030BD95
:100AA000080001402DE9F041024600250026002003
:100AB00000230024002791F803C00CF00F0591F8E3
:100AC00003C00CF0100CBCF1000F03D091F802C071
:100AD0004CEA050591F800C0BCF1000F31D0146854
:100AE00000202BE04FF0010C0CFA00F3B1F800C02D
:100AF0000CEA03069E4220D183004FF00F0C0CFA43
:100B000003F7BC4305FA03FC4CEA040491F803C064
:100B1000BCF1280F06D14FF0010C0CFA00FCC2F812
:100B200014C00AE091F803C0BCF1480F05D14FF0A2
:100B3000010C0CFA00FCC2F810C0401C0828D1D3EC
:100B40001460B1F800C0BCF1FF0F34DD5468002020
:100B50002EE000F1080C4FF0010808FA0CF3B1F890
:100B600000C00CEA03069E4221D183004FF00F0C17
:100B70000CFA03F7BC4305FA03FC4CEA040491F8B1
:100B800003C0BCF1280F05D100F1080C08FA0CF8DD
:100B9000C2F8148091F803C0BCF1480F07D100F1EE
:100BA000080C4FF0010808FA0CF8C2F81080401C3D
:100BB0000828CED35460BDE8F08102460020936837
:100BC0000B400BB1012000E00020704741617047ED
:100BD000016170470AB1016100E0416170470000A6
:100BE00010B516480078012827D100F041F914A269
:100BF0000121084600F0A4FA4FF49670FFF7B9FD02
:100C000000F036F901211148FFF7E0FF002000F065
:100C100089F80020094908700121084600F01EFBF0
:100C200000F092FD0AA20121084600F089FA4FF473
:100C3000FA70FFF79EFD00F01BF910BD15000020B3
:100C4000536C656570696E672E2E2E00000801409A
:100C500057616B65207570210000000000BFFEE742
:100C60004CF6CC400149086070470000003000405D
:100C700010B545F2555000F025F8062000F016F8A2
:100C800040F2E14000F018F800F008F8FFF7E8FF44
:100C90000121080700F020FB10BD00004AF6AA2041
:100CA0000149086070470000003000400149486079
:100CB0007047000000300040014988607047000024
:100CC00000300040014908607047000000300040DB
:100CD00000BFFEE710B500F065F900F047F8FFF738
:100CE000A5FB00F007F8FFF745FC01F045F800F020
:100CF0003FFC10BD08B50121082000F0FDFA1020CE
:100D00008DF803004FF44060ADF8000003208DF82B
:100D1000020069460248FFF7C5FE00F045FA08BD2B
:100D2000000C014010B50446002C0DDB4FF480612F
:100D30000D48FFF74DFF4FF400610B48FFF746FFEA
:100D4000A0B200F07BFA0DE04FF480610648FFF797
:100D50003DFF4FF400610448FFF73AFF614288B25B
:100D600000F06CFA10BD0000000C01401FB501211D
:100D7000042000F0C1FA0121084600F0BDFA482025
:100D80008DF80F000820ADF80C0003208DF80E0040
:100D900003A91448FFF786FE03210020FFF762FE37
:100DA0000820019001208DF80A0000208DF808002D
:100DB0000C208DF8090001A8FFF7F0FD4FF4A060AA
:100DC00000F04CF809208DF8000001208DF8030098
:100DD00003208DF801008DF80200684600F006F847
:100DE0001FBD0000000801407047000070B50021E1
:100DF00000230F22C47804B3154C246804F4E06483
:100E0000C4F5E064210AC1F10403CA40447804FA3D
:100E100003F184781440214309010E4C0678A15552
:100E2000047804F01F050124AC4005786D11AD0075
:100E300005F1E025C5F8004109E0047804F01F053C
:100E40000124AC40044D0678761145F8264070BD6B
:100E50000CED00E000E400E080E100E00249014325
:100E6000024A1160704700000000FA050CED00E036
:100E700070B500240EE00021204600F0F4F80025B3
:100E800004E0002000F080F9681CC5B2802DF8DB7A
:100E9000601CC4B2082CEEDB70BD000008B5012157
:100EA000082000F029FA14208DF8030003208DF8A3
:100EB00002004FF48070ADF8000069460A48FFF761
:100EC000F1FD4FF40070ADF8000069460648FFF7E9
:100ED000E9FD012211020448FFF77CFE01225102C4
:100EE0000148FFF777FE08BD000C014070B50546CC
:100EF000002419E080202041284008B1012000E0B2
:100F0000002002464FF400710E48FFF763FE0122F5
:100F100011020C48FFF75EFE00224FF48071094871
:100F2000FFF758FE601CC4B2082CE3DB012211025B
:100F30000448FFF74FFE00224FF480710148FFF78D
:100F400049FE70BD000C014010B5012251020A4853
:100F5000FFF740FE012211020748FFF73BFE002287
:100F60004FF400710448FFF735FE00224FF4807102
:100F70000148FFF72FFE10BD000C014010B5002204
:100F80004FF400710648FFF725FE012211020448C4
:100F9000FFF720FE012251020148FFF71BFE10BDA2
:100FA000000C014070B5002406E0002500E06D1C37
:100FB000B5F57A7FFBD3641CB4F57A7FF5D3FFF7E0
:100FC0006DFFAE2000F0D0F8D52000F0CDF88020E5
:100FD00000F0CAF8A82000F0C7F83F2000F0C4F8DD
:100FE000D32000F0C1F8002000F0BEF8402000F04F
:100FF000BBF8A12000F0B8F8C82000F0B5F8DA205E
:1010000000F0B2F8122000F0AFF8812000F0ACF848
:10101000CF2000F0A9F8D92000F0A6F8F12000F0C8
:10102000A3F8DB2000F0A0F8302000F09DF8A42009
:1010300000F09AF8A62000F097F88D2000F094F8C0
:10104000142000F091F8AF2000F08EF8FFF710FFA9
:1010500070BD10B50246012000E050430B1EA1F107
:101060000101FAD110BD70B505460C4645F0B0003F
:1010700000F07AF8102141EA141000F075F804F03D
:101080000F0000F071F870BD2DE9F04105460E46E5
:101090001746721ED206110E6A1E5206100EFFF778
:1010A000E2FF002409E0A7F12001134A02EB01113D
:1010B000085D00F069F8601CC4B2082CF3DB721EF6
:1010C000D206110E6A1E012303EB4202D0B2FFF7D3
:1010D000CAFF00240BE0A7F12001074A02EB01122E
:1010E00004F10801505C00F04FF8601CC4B2082CF9
:1010F000F1DBBDE8F0810000341E00082DE9F04767
:1011000080460E4617461D46002415E0281B411E4A
:101110000A20FFF79EFFB7FBF0F00A21B0FBF1F2C7
:1011200001FB120000F130093019C1B24A464046B5
:10113000FFF7AAFF601CC4B2AC42E7DBBDE8F08752
:101140002DE9F04107460E461546002407E02A5DCA
:101150003019C1B23846FFF797FF601CC4B2285D52
:101160000028F4D1BDE8F08110B50446FFF7ECFE8D
:101170007820FFF7BBFE0020FFF7B8FE2046FFF700
:10118000B5FEFFF7FBFE10BD10B50446FFF7DCFE11
:101190007820FFF7ABFE4020FFF7A8FE2046FFF7C0
:1011A000A5FEFFF7EBFE10BD00B589B001210220BE
:1011B00000F092F80121042000F09EF818208DF82C
:1011C00023004020ADF8200003208DF8220008A95C
:1011D0001848FFF767FC184800F022FB0020ADF824
:1011E0001A00ADF816006320ADF818002320ADF802
:1011F000140000208DF81C0005A90F4800F06EFBBC
:1012000001A800F05FFB6020ADF804000020ADF8FD
:101210000C000120ADF806000020ADF80A0001A97D
:10122000054800F003FB0121034800F0D3FA09B0A0
:1012300000BD0000000801400004004010B5044655
:101240002146024800F048FB10BD000000040040A9
:10125000014908627047000000000E4210B50246C6
:1012600000200C4B186820F00300104318600A4B54
:101270001B6843F00403084C2360012901D130BFEF
:1012800000E020BF044B1B6823F00403024C2360E2
:1012900010BD00000070004010ED00E0704700003D
:1012A00001460020034A506820F440400843506043
:1012B000704700000010024029B1064A52690243FB
:1012C000044B5A6104E0034A52698243014B5A615C
:1012D000704700000010024029B1064AD26902435B
:1012E000044BDA6104E0034AD2698243014BDA61BC
:1012F000704700000010024029B1064A926902437B
:10130000044B9A6104E0034A92698243014B9A615B
:10131000704700000010024030B500210022002478
:1013200000232D4D6D6805F00C0121B1042905D075
:10133000082923D105E0294D056022E0274D0560ED
:101340001FE0254D6D6805F47012234D6D6805F49E
:101350008034022505EB92421CB9214D55430560AE
:101360000BE01D4D6D6805F400351DB11C4D554356
:10137000056002E0194D5543056002E0174D056018
:1013800000BF00BF144D6D6805F0F0010909154D4F
:101390006B5C0568DD4045600F4D6D6805F4E061EC
:1013A000090A104D6B5C4568DD4085600A4D6D682B
:1013B00005F46051C90A0B4D6B5C4568DD40C560A2
:1013C000054D6D6805F44041890B074D6B5CC568A0
:1013D000B5FBF3F5056130BD0010024000127A0044
:1013E00000093D00000000201000002010B501465B
:1013F0000022002300204A11012A02D1094C23684F
:1014000006E0022A02D1074C236A01E0054C636A18
:1014100001F01F02012494401C400CB1012000E0A7
:10142000002010BD0010024000210B4A11700A4A32
:10143000203A82F82010012802D0042808D103E0C5
:101440000121054A117004E00521034A117000E0F2
:1014500000BF00BF70470000201002400149086033
:10146000704700003C0442420249096A0143014AB4
:1014700011627047001002400348008840F01000DD
:101480000149088070470000042800400348008894
:101490004FF6EF710840014908807047042800406A
:1014A000002103480188001F008841EA004070477E
:1014B0001C28004000B50246FFF7DEFF100C034970
:1014C0000880091D0A80FFF7E1FF00BD18280040D1
:1014D00000B50246FFF7D0FFC2F30340034908807E
:1014E000091D0A80FFF7D2FF00BD00000828004058
:1014F00000BF0348008800F020000028F9D07047A2
:1015000004280040074800884FF6F7710840054955
:10151000088000BF0348008800F008000028F9D0C8
:1015200070470000042800407047000010B50C48C8
:101530000078012808D100200A4908700AA2102169
:101540000120FFF7FDFD0AE00548007838B90A20C0
:101550000449087005A210210120FFF7F1FD10BD1C
:101560002F00002030000020420000005300000047
:1015700000B587B001218803FFF7BEFE01210420DA
:10158000FFF7BAFE18208DF81B004FF40070ADF87D
:10159000180003208DF81A0006A91F48FFF782FAE9
:1015A00048208DF81B004FF48060ADF81800032030
:1015B0008DF81A0006A91848FFF774FA4FF4165070
:1015C00002900020ADF814000C20ADF812000020AD
:1015D000ADF81000ADF80E00ADF80C0002A90F48F0
:1015E00000F0E8FA012240F225510C4800F0BCFA64
:1015F00025208DF8040001208DF807008DF80500E6
:101600008DF8060001A8FFF7F1FB0121034800F067
:1016100068FA07B000BD0000000801400038014032
:1016200010B504462146054800F035FB00BF802177
:10163000024800F062FA0028F9D010BD00380140DD
:1016400070B50446002504E0605DFFF7E9FF681C03
:10165000C5B2605D0028F7D170BD10B500F002F88A
:1016600010BD00000CB500200190009033480068C8
:1016700040F480303149086000BF3048006800F411
:10168000003000900198401C0190009818B9019812
:10169000B0F5A06FF1D12948006800F4003010B116
:1016A0000120009001E0002000900098012843D123
:1016B0002348006840F0100021490860084600688F
:1016C00020F0030008600846006840F0020008604F
:1016D0001A4840681949486008464068486008460A
:1016E000406840F4806048600846406820F47C1000
:1016F00048600846406840F4E810486008460068C2
:1017000040F08070086000BF0C48006800F0007076
:101710000028F9D00948406820F0030007494860D4
:101720000846406840F00200486000BF0348406837
:1017300000F00C000828F9D10CBD00000010024098
:10174000002002407047000010B51348006840F0C8
:1017500001001149086008464068104908400E49D8
:101760004860084600680E4908400B490860084672
:10177000006820F4802008600846406820F4FE00DD
:1017800048604FF41F008860FFF767FF4FF000606C
:101790000449086010BD0000001002400000FFF87E
:1017A000FFFFF6FE08ED00E010B50121880700F00C
:1017B0001DF830B10121880700F009F80120014926
:1017C000087010BD1E000020CA4302827047CA4341
:1017D0000282704721B1028842F00102028004E0D7
:1017E00002884FF6FE731A400280704730B50246F9
:1017F000002000230024158A05EA0103958905EAE3
:10180000010413B10CB1012000E0002030BD1AB179
:1018100083890B43838102E083898B4383817047F3
:1018200001894FF6F87211400181704770B50024AC
:1018300000220023058C4FF6FE7635400584028C8D
:101840008388048B4FF68F752C40B51E2C400D8875
:101850002C43751E2A400D892A434D882A43144D76
:10186000A8420BD0134DA84208D0134DA84205D072
:10187000124DA84202D0124DA84213D14FF6F7756F
:101880002A404D892A434FF6FB752A408D882A430A
:101890004FF6FF652B404FF6FF552B408D892B43AC
:1018A000CD892B4383800483CD888586028470BDD7
:1018B000002C014000340140004001400044014040
:1018C000004801400021018041808180C180018168
:1018D00041818181C18170478186704700220288E1
:1018E0001D4B98420ED01D4B98420BD0B0F1804F4B
:1018F00008D01B4B984205D01A4B984202D01A4B85
:10190000984204D14FF68F731A404B881A43174BF5
:10191000984207D0164B984204D04FF6FF431A4026
:10192000CB881A4302808B8883850B8803850A4BFA
:1019300098420BD0094B984208D00E4B984205D0E4
:101940000D4B984202D00D4B984201D10B7A038681
:101950000123838270470000002C014000340140C5
:101960000004004000080040000C0040001000404F
:101970000014004000400140004401400048014084
:1019800010B51148007801281DD110A11248FEF7AA
:101990001DFC30B900201149087011A0FFF750FE5E
:1019A0000EE013A10C48FEF711FC30B901200B49E1
:1019B000087013A0FFF744FE02E016A0FFF740FEF8
:1019C00000200149087010BD2C0000204D4F4445F7
:1019D0005F53555045520000340000202F00002076
:1019E0004D4F44455F53555045525F4F4B0D0A00D4
:1019F0004D4F44455F42414C414E4345000000007D
:101A00004D4F44455F42414C414E43455F4F4B0D66
:101A10000A0000004552524F525F434F4D4D414E18
:101A2000440D0A0010B540F22551214800F072F82B
:101A300001283CD11E4800F029F9C4B21D480078A5
:101A400058B9402C2DD11C48007850BB01201949B1
:101A5000087000201949087023E016480078012812
:101A60000FD10D2C03D102201249087019E014483F
:101A700012490978445411480078401C0F490870F5
:101A80000FE00C48007802280BD10A2C09D1002065
:101A9000084908700A49094A127888540120064901
:101AA000087040F22551024800F00CF800BF10BD4C
:101AB000003801402D0000202C0000202E000020C6
:101AC0003400002010B50022002340F66A14A14221
:101AD00000D100BF0A1201249440A3B2DC43048069
:101AE00010BD21B1828942F40052828104E08289D2
:101AF0004DF6FF731A408281704702460020B1F50F
:101B0000007F00D100BF13880B400BB1012000E023
:101B10000020704770B502460024002300250020F5
:101B200040F66A16B14200D100BFC1F3421501F080
:101B30001F03012606FA03F3012D02D196893340D3
:101B400006E0022D02D1168A334001E0968A334026
:101B50000C12012606FA04F41688344013B10CB1B5
:101B6000012000E0002070BDF0B5034600240026EF
:101B70000025002040F66A17B94200D100BF184680
:101B8000C1F3421401F01F06012707FA06F5012CE4
:101B900001D10C3004E0022C01D1103000E01430EF
:101BA0001AB107682F43076002E00768AF43076078
:101BB000F0BD00002DE9F04786B005460E46002432
:101BC000A24600BFA1460027B08900B100BF2F4642
:101BD0002C8A4CF6FF700440F08804432C82AC89B8
:101BE0004EF6F3100440B0883189084371890843E8
:101BF0000443AC81AC8A4FF6FF400440B0890443F3
:101C0000AC8201A8FFF788FB1F48874202D1DDF8AC
:101C100010A001E0DDF80CA0A88900F4004040B15C
:101C20000AEBCA0000EB0A1031684900B0FBF1F87A
:101C300007E00AEBCA0000EB0A1031688900B0FB2C
:101C4000F1F86420B8FBF0F004012009642101FBE5
:101C50001089A88900F4004040B1322000EBC9008F
:101C6000B0FBF1F000F00700044308E0322000EB85
:101C700009106421B0FBF1F000F00F0004432C8147
:101C800006B0BDE8F08700000038014001468888B2
:101C9000C0F308007047C1F308028280704700BF9C
:101CA000FEE701B581B04FF4FA50009008E04FF420
:101CB000FA50009000BF0098411E00910028FAD110
:101CC000BDF80400411E89B201910028EFD10CBD7E
:101CD00002E008C8121F08C1002AFAD170477047F5
:101CE000002001E001C1121F002AFBD17047000053
:101CF000FEF7F0FFFEF7BCFFFEF79AFE19E00D4875
:101D00000078012811D1FEF7DDFDFFF70FFC01215E
:101D10000948FEF75DFFFEF74FFDFEF771FDFFF787
:101D20002FFE6420FFF7BDFF01E0FEF759FFFEF72D
:101D3000B5FFE4E7140000200008014038B5FFF7C4
:101D4000AFFB00F5E14000906846FEF74DFA04460F
:101D5000A08A00F26C7007490880208A401C4880E5
:101D6000A08988802089C880A0880881208848812F
:101D700038BD00002000002010B501214FF0C050F8
:101D8000FFF7AAFA0120FFF763FA0420FEF7D4FB5D
:101D900041F23421884221D00120FFF745FB00BFEA
:101DA0004120FFF723FB0028FAD04FF48070FFF7A3
:101DB0005BFB0120FFF752FBFFF7A4FBFFF798FB4B
:101DC00047F6FF70FFF784FBFFF792FB00F00CF87B
:101DD00041F234210420FEF7BDFB03E0FFF792FB44
:101DE000FFF786FB10BD000010B58CB010480088CE
:101DF000A0F26C7006900E484088401E05900C487A
:101E0000808804900A48C08803900948008902909D
:101E100007484089019001A8FEF784F9A0F5E14444
:101E20002046FFF747FBFFF763FB0CB010BD000037
:101E30002000002000000000000000000000000062
:101E400000000000000000F8000000000000003367
:101E50003000000000100C06100C0600000000000E
:101E60000000000040C07840C0784000043F0404F7
:101E70003F040400007088FC08300000001820FFB8
:101E8000211E0000F008F000E018000000211C03F3
:101E90001E211E0000F00888700000001E2123246F
:101EA0001927211010160E0000000000000000008D
:101EB00000000000000000E018040200000000071D
:101EC0001820400000020418E00000000040201824
:101ED00007000000404080F0804040000202010FF7
:101EE00001020200000000F0000000000101011FDB
:101EF00001010100000000000000000080B070003F
:101F000000000000000000000000000000010101CE
:101F1000010101010000000000000000003030005D
:101F20000000000000000000806018040060180637
:101F30000100000000E010080810E000000F102071
:101F400020100F00001010F8000000000020203FBB
:101F50002020000000700808088870000030282445
:101F600022213000003008888848300000182020E6
:101F700020110E000000C02010F80000000704240B
:101F8000243F240000F80888880808000019212050
:101F900020110E0000E0108888180000000F1120AA
:101FA00020110E0000380808C83808000000003F63
:101FB000000000000070880808887000001C2221C2
:101FC00021221C0000E010080810E000000031226F
:101FD00022110F00000000C0C0000000000000300F
:101FE0003000000000000080000000000000806061
:101FF00000000000000080402010080000010204E2
:1020000008102000404040404040400004040404C8
:102010000404040000081020408000000020100884
:1020200004020100007048080808F00000000030B9
:1020300036010000C030C828E810E0000718272447
:1020400023140B000000C038E0000000203C2302F5
:102050000227382008F8888888700000203F202058
:1020600020110E00C030080808083800071820208A
:102070002010080008F808080810E000203F202081
:1020800020100F0008F88888E8081000203F202062
:102090002320180008F88888E8081000203F200056
:1020A00003000000C030080808380000071820208E
:1020B000221E020008F808000008F808203F21014D
:1020C00001213F20000808F8080800000020203FF8
:1020D0002020000000000808F8080800C080808068
:1020E0007F00000008F888C028180800203F200161
:1020F0002638200008F8080000000000203F2020BB
:102100002020300008F8F800F8F80800203F003FD1
:10211000003F200008F830C00008F808203F2000E9
:1021200007183F00E01008080810E0000F102020FA
:1021300020100F0008F808080808F000203F2101CF
:1021400001010000E01008080810E0000F18242426
:1021500038504F0008F8888888887000203F200099
:10216000030C30200070880808083800003820214F
:1021700021221C00180808F8080818000000203F59
:102180002000000008F808000008F808001F2020C0
:1021900020201F000878880000C838080000073891
:1021A0000E010000F80800F80008F800033C0700E2
:1021B000073C0300081868808068180820302C034A
:1021C000032C30200838C800C83808000000203F21
:1021D0002000000010080808C83808002038262110
:1021E00020201800000000FE020202000000007F14
:1021F00040404000000C30C0000000000000000122
:102200000638C00000020202FE000000004040400C
:102210007F00000000000402020204000000000031
:1022200000000000000000000000000080808080AE
:102230008080808000020204000000000000000096
:10224000000000000000808080800000001924222F
:1022500022223F2008F8008080000000003F11206B
:1022600020110E000000008080800000000E112070
:1022700020201100000000808088F800000E11204E
:1022800020103F200000808080800000001F22225C
:1022900022221300008080F0888888180020203FC8
:1022A000202000000000808080808000006B9494DB
:1022B0009493600008F8008080800000203F210097
:1022C00000203F2000809898000000000020203F60
:1022D00020200000000000809898000000C080804E
:1022E000807F000008F8000080808000203F2402EA
:1022F0002D302000000808F8000000000020203FDA
:10230000202000008080808080808000203F20008E
:102310003F20003F8080008080800000203F21001F
:1023200000203F200000808080800000001F2020CF
:1023300020201F00808000808000000080FFA120FE
:1023400020110E000000008080808000000E11200F
:1023500020A0FF80808080008080800020203F219E
:102360002000010000008080808080000033242451
:1023700024241900008080E0808000000000001FFD
:10238000202000008080000000808000001F2020AE
:1023900020103F20808080000080808000010E306F
:1023A0000806010080800080008080800F300C03D0
:1023B0000C300F0000808000808080000020312ED3
:1023C0000E312000808080000080808080818E70AF
:1023D0001806010000808080808080000021302C61
:1023E0002221300000000000807C0202000000007A
:1023F000003F404000000000FF000000000000001F
:10240000FF0000000002027C800000000040403F0E
:1024100000000000000601010202040400000000A8
:10242000000000001F1C1F1E1F1E1F1F1E1F1E1F3F
:102430001F1D1F1E1F1E1F1F1E1F1E1F5C240008A6
:102440000000002034000000D01C00089024000888
:102450003400002094040000E01C0008000000008C
:102460000102030401020304060708090204060826
:10247000000000000000000000000000E907030069
:102480000D000D00180037000000000100000000E2
:04000005080000ED02
:00000001FF
